{
  "contractName": "EMR_Security",
  "abi": [
    {
      "anonymous": false,
      "inputs": [
        {
          "indexed": false,
          "internalType": "uint256",
          "name": "emrID",
          "type": "uint256"
        },
        {
          "indexed": false,
          "internalType": "uint256",
          "name": "blockNumber",
          "type": "uint256"
        }
      ],
      "name": "EMRUpdated",
      "type": "event"
    },
    {
      "anonymous": false,
      "inputs": [
        {
          "indexed": false,
          "internalType": "uint256",
          "name": "emrID",
          "type": "uint256"
        },
        {
          "indexed": false,
          "internalType": "uint256",
          "name": "blockNumber",
          "type": "uint256"
        }
      ],
      "name": "EMRUploaded",
      "type": "event"
    },
    {
      "inputs": [
        {
          "internalType": "uint256",
          "name": "",
          "type": "uint256"
        }
      ],
      "name": "emrs",
      "outputs": [
        {
          "internalType": "uint256",
          "name": "emrId",
          "type": "uint256"
        },
        {
          "internalType": "uint256",
          "name": "emrLength",
          "type": "uint256"
        },
        {
          "internalType": "uint256",
          "name": "totalSharesLength",
          "type": "uint256"
        }
      ],
      "stateMutability": "view",
      "type": "function",
      "constant": true
    },
    {
      "inputs": [
        {
          "internalType": "uint256[]",
          "name": "subMessages",
          "type": "uint256[]"
        },
        {
          "internalType": "uint256",
          "name": "t",
          "type": "uint256"
        },
        {
          "internalType": "uint256",
          "name": "totalBitsLength",
          "type": "uint256"
        },
        {
          "internalType": "uint256",
          "name": "emrLength",
          "type": "uint256"
        }
      ],
      "name": "InterleavingDecoder",
      "outputs": [
        {
          "internalType": "string",
          "name": "",
          "type": "string"
        }
      ],
      "stateMutability": "pure",
      "type": "function",
      "constant": true
    },
    {
      "inputs": [
        {
          "internalType": "string",
          "name": "emr",
          "type": "string"
        },
        {
          "internalType": "uint256",
          "name": "t",
          "type": "uint256"
        }
      ],
      "name": "uploadEMR",
      "outputs": [
        {
          "internalType": "uint256",
          "name": "emrID",
          "type": "uint256"
        },
        {
          "internalType": "uint256",
          "name": "blockNumber",
          "type": "uint256"
        }
      ],
      "stateMutability": "nonpayable",
      "type": "function"
    },
    {
      "inputs": [
        {
          "internalType": "uint256[]",
          "name": "shares",
          "type": "uint256[]"
        },
        {
          "internalType": "uint256",
          "name": "EMR_id",
          "type": "uint256"
        }
      ],
      "name": "getEMRData",
      "outputs": [
        {
          "internalType": "string",
          "name": "",
          "type": "string"
        }
      ],
      "stateMutability": "view",
      "type": "function",
      "constant": true
    },
    {
      "inputs": [
        {
          "internalType": "uint256",
          "name": "emrID",
          "type": "uint256"
        },
        {
          "internalType": "uint256",
          "name": "blockNumber",
          "type": "uint256"
        }
      ],
      "name": "getSharesByBlockNumber",
      "outputs": [
        {
          "internalType": "uint256[]",
          "name": "",
          "type": "uint256[]"
        }
      ],
      "stateMutability": "view",
      "type": "function",
      "constant": true
    },
    {
      "inputs": [
        {
          "internalType": "uint256",
          "name": "emrID",
          "type": "uint256"
        },
        {
          "internalType": "uint256[]",
          "name": "shares",
          "type": "uint256[]"
        },
        {
          "internalType": "string",
          "name": "changeData",
          "type": "string"
        },
        {
          "internalType": "string",
          "name": "changeMessage",
          "type": "string"
        }
      ],
      "name": "updateEMR",
      "outputs": [
        {
          "internalType": "uint256",
          "name": "updatedEmrID",
          "type": "uint256"
        },
        {
          "internalType": "uint256",
          "name": "blockNumber",
          "type": "uint256"
        }
      ],
      "stateMutability": "nonpayable",
      "type": "function"
    },
    {
      "inputs": [
        {
          "internalType": "uint256",
          "name": "emrID",
          "type": "uint256"
        }
      ],
      "name": "getEMRHistory",
      "outputs": [
        {
          "internalType": "string[]",
          "name": "history",
          "type": "string[]"
        },
        {
          "internalType": "uint256[]",
          "name": "timestamps",
          "type": "uint256[]"
        },
        {
          "internalType": "uint256[]",
          "name": "blocks",
          "type": "uint256[]"
        }
      ],
      "stateMutability": "view",
      "type": "function",
      "constant": true
    }
  ],
  "bytecode": "0x608060405234801561001057600080fd5b506124db806100206000396000f3fe608060405234801561001057600080fd5b506004361061007d5760003560e01c80637ba6dfe41161005b5780637ba6dfe414610114578063b7ab9d2714610146578063e319fd4e14610176578063fe085cde146101a85761007d565b806358a8b0f514610082578063590d6359146100b35780636066eb02146100e4575b600080fd5b61009c60048036038101906100979190611805565b6101d8565b6040516100aa9291906118cf565b60405180910390f35b6100cd60048036038101906100c891906118f8565b610430565b6040516100db9291906118cf565b60405180910390f35b6100fe60048036038101906100f99190611954565b610639565b60405161010b9190611a56565b60405180910390f35b61012e60048036038101906101299190611a78565b610807565b60405161013d93929190611aa5565b60405180910390f35b610160600480360381019061015b9190611adc565b610831565b60405161016d9190611bda565b60405180910390f35b610190600480360381019061018b9190611a78565b6109ae565b60405161019f93929190611d08565b60405180910390f35b6101c260048036038101906101bd9190611d54565b610b5b565b6040516101cf9190611a56565b60405180910390f35b6000806000600160008881526020019081526020016000206001018054905011610237576040517f08c379a000000000000000000000000000000000000000000000000000000000815260040161022e90611dfc565b60405180910390fd5b6000610272868751600160008b815260200190815260200160002060030154600160008c815260200190815260200160002060020154610639565b905060008186604051602001610289929190611e58565b60405160208183030381529060405290506000806102a8838a51610b9e565b9150915081600160008c815260200190815260200160002060010190805190602001906102d6929190611543565b50600160008b81526020019081526020016000206004018790806001815401808255809150506001900390600052602060002001600090919091909150908161031f9190612088565b50600861032b84610dd8565b6103359190612189565b600160008c815260200190815260200160002060020181905550600160008b815260200190815260200160002060050142908060018154018082558091505060019003906000526020600020016000909190919091505580600160008c815260200190815260200160002060030181905550439450600160008b81526020019081526020016000206006018590806001815401808255809150506001900390600052602060002001600090919091909150557fd13d51fe6753231cc19aaa6e7642954730b62432320e58420057ccc2e2151d398a866040516104189291906118cf565b60405180910390a18995505050505094509492505050565b600080600080815480929190610445906121cb565b9190505550600054915060008061045c8686610b9e565b915091506000600861046d88610dd8565b6104779190612189565b9050846001600087815260200190815260200160002060000181905550826001600087815260200190815260200160002060010190805190602001906104be929190611543565b508060016000878152602001908152602001600020600201819055508160016000878152602001908152602001600020600301819055506001600086815260200190815260200160002060040180600181540180825580915050600190039060005260206000200160006040518060400160405280600881526020017f55706c6f616465640000000000000000000000000000000000000000000000008152509091909150908161056f9190612088565b50600160008681526020019081526020016000206005014290806001815401808255809150506001900390600052602060002001600090919091909150556000439050600160008781526020019081526020016000206006018190806001815401808255809150506001900390600052602060002001600090919091909150557fa6528f1738f0a50309b0c63c06464067282858970513949c5aaed6bf778bd84c86826040516106209291906118cf565b60405180910390a1858195509550505050509250929050565b606060006106478685610f8d565b905060008467ffffffffffffffff8111156106655761066461160d565b5b6040519080825280602002602001820160405280156106935781602001602082028036833780820191505090505b50905060005b85811015610725578287826106ae9190612242565b88886106ba9190612242565b89846106c69190612273565b6106d09190612189565b6106da91906122a4565b815181106106eb576106ea6122d8565b5b6020026020010151828281518110610706576107056122d8565b5b602002602001018181525050808061071d906121cb565b915050610699565b50600061073e826008876107399190612242565b6110a9565b90506000815167ffffffffffffffff81111561075d5761075c61160d565b5b60405190808252806020026020018201604052801561078b5781602001602082028036833780820191505090505b50905060005b82518110156107ef578281815181106107ad576107ac6122d8565b5b60200260200101518282815181106107c8576107c76122d8565b5b602002602001019060ff16908160ff168152505080806107e7906121cb565b915050610791565b506107f981611246565b945050505050949350505050565b60016020528060005260406000206000915090508060000154908060020154908060030154905083565b6060600060016000858152602001908152602001600020600101805490501161088f576040517f08c379a000000000000000000000000000000000000000000000000000000000815260040161088690611dfc565b60405180910390fd5b60005b600160008581526020019081526020016000206006018054905081101561096c57826001600086815260200190815260200160002060060182815481106108dc576108db6122d8565b5b906000526020600020015403610959576001600085815260200190815260200160002060010180548060200260200160405190810160405280929190818152602001828054801561094c57602002820191906000526020600020905b815481526020019060010190808311610938575b50505050509150506109a8565b8080610964906121cb565b915050610892565b506040517f08c379a000000000000000000000000000000000000000000000000000000000815260040161099f90612379565b60405180910390fd5b92915050565b6060806060600060016000868152602001908152602001600020905080600401816005018260060182805480602002602001604051908101604052809291908181526020016000905b82821015610aa3578382906000526020600020018054610a1690611eab565b80601f0160208091040260200160405190810160405280929190818152602001828054610a4290611eab565b8015610a8f5780601f10610a6457610100808354040283529160200191610a8f565b820191906000526020600020905b815481529060010190602001808311610a7257829003601f168201915b5050505050815260200190600101906109f7565b50505050925081805480602002602001604051908101604052809291908181526020018280548015610af457602002820191906000526020600020905b815481526020019060010190808311610ae0575b5050505050915080805480602002602001604051908101604052809291908181526020018280548015610b4657602002820191906000526020600020905b815481526020019060010190808311610b32575b50505050509050935093509350509193909250565b6060610b9683845160016000868152602001908152602001600020600301546001600087815260200190815260200160002060020154610639565b905092915050565b6060600080610bac85611367565b9050600081519050600081905060008683610bc79190612273565b14610bf1578582610bd89190612273565b86610be39190612399565b81610bee91906122a4565b90505b60008167ffffffffffffffff811115610c0d57610c0c61160d565b5b604051908082528060200260200182016040528015610c3b5781602001602082028036833780820191505090505b50905060005b83811015610c9657848181518110610c5c57610c5b6122d8565b5b6020026020010151828281518110610c7757610c766122d8565b5b6020026020010181815250508080610c8e906121cb565b915050610c41565b5060008390505b82811015610cd9576000828281518110610cba57610cb96122d8565b5b6020026020010181815250508080610cd1906121cb565b915050610c9d565b5060008267ffffffffffffffff811115610cf657610cf561160d565b5b604051908082528060200260200182016040528015610d245781602001602082028036833780820191505090505b50905060005b83811015610db657828181518110610d4557610d446122d8565b5b6020026020010151828a83610d5a9190612242565b8b87610d669190612242565b8c85610d729190612273565b610d7c9190612189565b610d8691906122a4565b81518110610d9757610d966122d8565b5b6020026020010181815250508080610dae906121cb565b915050610d2a565b506000610dc3828a6110a9565b90508084975097505050505050509250929050565b60008060008084519050600092505b80821015610f82576000858381518110610e0457610e036122d8565b5b602001015160f81c60f81b9050608060f81b817effffffffffffffffffffffffffffffffffffffffffffffffffffffffffffff19161015610e5357600183610e4c91906122a4565b9250610f6e565b60e060f81b817effffffffffffffffffffffffffffffffffffffffffffffffffffffffffffff19161015610e9557600283610e8e91906122a4565b9250610f6d565b60f060f81b817effffffffffffffffffffffffffffffffffffffffffffffffffffffffffffff19161015610ed757600383610ed091906122a4565b9250610f6c565b60f8801b817effffffffffffffffffffffffffffffffffffffffffffffffffffffffffffff19161015610f1857600483610f1191906122a4565b9250610f6b565b60fc60f81b817effffffffffffffffffffffffffffffffffffffffffffffffffffffffffffff19161015610f5a57600583610f5391906122a4565b9250610f6a565b600683610f6791906122a4565b92505b5b5b5b5b508280610f7a906121cb565b935050610de7565b829350505050919050565b606060008267ffffffffffffffff811115610fab57610faa61160d565b5b604051908082528060200260200182016040528015610fd95781602001602082028036833780820191505090505b5090506000845184610feb9190612242565b90506000805b865181101561109c57600087828151811061100f5761100e6122d8565b5b6020026020010151905060005b8481101561108757600060018083886110359190612399565b61103f9190612399565b84901c16905080878681518110611059576110586122d8565b5b6020026020010181815250508480611070906121cb565b95505050808061107f906121cb565b91505061101c565b50508080611094906121cb565b915050610ff1565b5082935050505092915050565b606060008267ffffffffffffffff8111156110c7576110c661160d565b5b6040519080825280602002602001820160405280156110f55781602001602082028036833780820191505090505b50905060008385516111079190612242565b905060005b8481101561123a576000805b8381101561120557600081858561112f9190612189565b61113991906122a4565b905060008982815181106111505761114f6122d8565b5b6020026020010151148061117e57506001898281518110611174576111736122d8565b5b6020026020010151145b6111bd576040517f08c379a00000000000000000000000000000000000000000000000000000000081526004016111b490612419565b60405180910390fd5b8881815181106111d0576111cf6122d8565b5b60200260200101516002846111e59190612189565b6111ef91906122a4565b92505080806111fd906121cb565b915050611118565b508084838151811061121a576112196122d8565b5b602002602001018181525050508080611232906121cb565b91505061110c565b50819250505092915050565b6060600082511161128c576040517f08c379a000000000000000000000000000000000000000000000000000000000815260040161128390612485565b60405180910390fd5b6000825167ffffffffffffffff8111156112a9576112a861160d565b5b6040519080825280601f01601f1916602001820160405280156112db5781602001600182028036833780820191505090505b50905060005b835181101561135d578381815181106112fd576112fc6122d8565b5b602002602001015160f81b82828151811061131b5761131a6122d8565b5b60200101907effffffffffffffffffffffffffffffffffffffffffffffffffffffffffffff1916908160001a9053508080611355906121cb565b9150506112e1565b5080915050919050565b60606000600883516113799190612189565b67ffffffffffffffff8111156113925761139161160d565b5b6040519080825280602002602001820160405280156113c05781602001602082028036833780820191505090505b5090506000806113cf85611482565b905060005b81518110156114765760008282815181106113f2576113f16122d8565b5b6020026020010151905060005b60088110156114615760018160076114179190612399565b8360ff16901c1660ff16868681518110611434576114336122d8565b5b602002602001018181525050848061144b906121cb565b9550508080611459906121cb565b9150506113ff565b5050808061146e906121cb565b9150506113d4565b50829350505050919050565b60606000825167ffffffffffffffff8111156114a1576114a061160d565b5b6040519080825280602002602001820160405280156114cf5781602001602082028036833780820191505090505b50905060005b8351811015611539578381815181106114f1576114f06122d8565b5b602001015160f81c60f81b60f81c828281518110611512576115116122d8565b5b602002602001019060ff16908160ff16815250508080611531906121cb565b9150506114d5565b5080915050919050565b82805482825590600052602060002090810192821561157f579160200282015b8281111561157e578251825591602001919060010190611563565b5b50905061158c9190611590565b5090565b5b808211156115a9576000816000905550600101611591565b5090565b6000604051905090565b600080fd5b600080fd5b6000819050919050565b6115d4816115c1565b81146115df57600080fd5b50565b6000813590506115f1816115cb565b92915050565b600080fd5b6000601f19601f8301169050919050565b7f4e487b7100000000000000000000000000000000000000000000000000000000600052604160045260246000fd5b611645826115fc565b810181811067ffffffffffffffff821117156116645761166361160d565b5b80604052505050565b60006116776115ad565b9050611683828261163c565b919050565b600067ffffffffffffffff8211156116a3576116a261160d565b5b602082029050602081019050919050565b600080fd5b60006116cc6116c784611688565b61166d565b905080838252602082019050602084028301858111156116ef576116ee6116b4565b5b835b81811015611718578061170488826115e2565b8452602084019350506020810190506116f1565b5050509392505050565b600082601f830112611737576117366115f7565b5b81356117478482602086016116b9565b91505092915050565b600080fd5b600067ffffffffffffffff8211156117705761176f61160d565b5b611779826115fc565b9050602081019050919050565b82818337600083830152505050565b60006117a86117a384611755565b61166d565b9050828152602081018484840111156117c4576117c3611750565b5b6117cf848285611786565b509392505050565b600082601f8301126117ec576117eb6115f7565b5b81356117fc848260208601611795565b91505092915050565b6000806000806080858703121561181f5761181e6115b7565b5b600061182d878288016115e2565b945050602085013567ffffffffffffffff81111561184e5761184d6115bc565b5b61185a87828801611722565b935050604085013567ffffffffffffffff81111561187b5761187a6115bc565b5b611887878288016117d7565b925050606085013567ffffffffffffffff8111156118a8576118a76115bc565b5b6118b4878288016117d7565b91505092959194509250565b6118c9816115c1565b82525050565b60006040820190506118e460008301856118c0565b6118f160208301846118c0565b9392505050565b6000806040838503121561190f5761190e6115b7565b5b600083013567ffffffffffffffff81111561192d5761192c6115bc565b5b611939858286016117d7565b925050602061194a858286016115e2565b9150509250929050565b6000806000806080858703121561196e5761196d6115b7565b5b600085013567ffffffffffffffff81111561198c5761198b6115bc565b5b61199887828801611722565b94505060206119a9878288016115e2565b93505060406119ba878288016115e2565b92505060606119cb878288016115e2565b91505092959194509250565b600081519050919050565b600082825260208201905092915050565b60005b83811015611a115780820151818401526020810190506119f6565b60008484015250505050565b6000611a28826119d7565b611a3281856119e2565b9350611a428185602086016119f3565b611a4b816115fc565b840191505092915050565b60006020820190508181036000830152611a708184611a1d565b905092915050565b600060208284031215611a8e57611a8d6115b7565b5b6000611a9c848285016115e2565b91505092915050565b6000606082019050611aba60008301866118c0565b611ac760208301856118c0565b611ad460408301846118c0565b949350505050565b60008060408385031215611af357611af26115b7565b5b6000611b01858286016115e2565b9250506020611b12858286016115e2565b9150509250929050565b600081519050919050565b600082825260208201905092915050565b6000819050602082019050919050565b611b51816115c1565b82525050565b6000611b638383611b48565b60208301905092915050565b6000602082019050919050565b6000611b8782611b1c565b611b918185611b27565b9350611b9c83611b38565b8060005b83811015611bcd578151611bb48882611b57565b9750611bbf83611b6f565b925050600181019050611ba0565b5085935050505092915050565b60006020820190508181036000830152611bf48184611b7c565b905092915050565b600081519050919050565b600082825260208201905092915050565b6000819050602082019050919050565b600082825260208201905092915050565b6000611c44826119d7565b611c4e8185611c28565b9350611c5e8185602086016119f3565b611c67816115fc565b840191505092915050565b6000611c7e8383611c39565b905092915050565b6000602082019050919050565b6000611c9e82611bfc565b611ca88185611c07565b935083602082028501611cba85611c18565b8060005b85811015611cf65784840389528151611cd78582611c72565b9450611ce283611c86565b925060208a01995050600181019050611cbe565b50829750879550505050505092915050565b60006060820190508181036000830152611d228186611c93565b90508181036020830152611d368185611b7c565b90508181036040830152611d4a8184611b7c565b9050949350505050565b60008060408385031215611d6b57611d6a6115b7565b5b600083013567ffffffffffffffff811115611d8957611d886115bc565b5b611d9585828601611722565b9250506020611da6858286016115e2565b9150509250929050565b7f454d52206e6f7420666f756e6400000000000000000000000000000000000000600082015250565b6000611de6600d836119e2565b9150611df182611db0565b602082019050919050565b60006020820190508181036000830152611e1581611dd9565b9050919050565b600081905092915050565b6000611e32826119d7565b611e3c8185611e1c565b9350611e4c8185602086016119f3565b80840191505092915050565b6000611e648285611e27565b9150611e708284611e27565b91508190509392505050565b7f4e487b7100000000000000000000000000000000000000000000000000000000600052602260045260246000fd5b60006002820490506001821680611ec357607f821691505b602082108103611ed657611ed5611e7c565b5b50919050565b60008190508160005260206000209050919050565b60006020601f8301049050919050565b600082821b905092915050565b600060088302611f3e7fffffffffffffffffffffffffffffffffffffffffffffffffffffffffffffffff82611f01565b611f488683611f01565b95508019841693508086168417925050509392505050565b6000819050919050565b6000611f85611f80611f7b846115c1565b611f60565b6115c1565b9050919050565b6000819050919050565b611f9f83611f6a565b611fb3611fab82611f8c565b848454611f0e565b825550505050565b600090565b611fc8611fbb565b611fd3818484611f96565b505050565b5b81811015611ff757611fec600082611fc0565b600181019050611fd9565b5050565b601f82111561203c5761200d81611edc565b61201684611ef1565b81016020851015612025578190505b61203961203185611ef1565b830182611fd8565b50505b505050565b600082821c905092915050565b600061205f60001984600802612041565b1980831691505092915050565b6000612078838361204e565b9150826002028217905092915050565b612091826119d7565b67ffffffffffffffff8111156120aa576120a961160d565b5b6120b48254611eab565b6120bf828285611ffb565b600060209050601f8311600181146120f257600084156120e0578287015190505b6120ea858261206c565b865550612152565b601f19841661210086611edc565b60005b8281101561212857848901518255600182019150602085019450602081019050612103565b868310156121455784890151612141601f89168261204e565b8355505b6001600288020188555050505b505050505050565b7f4e487b7100000000000000000000000000000000000000000000000000000000600052601160045260246000fd5b6000612194826115c1565b915061219f836115c1565b92508282026121ad816115c1565b915082820484148315176121c4576121c361215a565b5b5092915050565b60006121d6826115c1565b91507fffffffffffffffffffffffffffffffffffffffffffffffffffffffffffffffff82036122085761220761215a565b5b600182019050919050565b7f4e487b7100000000000000000000000000000000000000000000000000000000600052601260045260246000fd5b600061224d826115c1565b9150612258836115c1565b92508261226857612267612213565b5b828204905092915050565b600061227e826115c1565b9150612289836115c1565b92508261229957612298612213565b5b828206905092915050565b60006122af826115c1565b91506122ba836115c1565b92508282019050808211156122d2576122d161215a565b5b92915050565b7f4e487b7100000000000000000000000000000000000000000000000000000000600052603260045260246000fd5b7f426c6f636b206e756d626572206e6f7420666f756e6420666f7220746869732060008201527f454d522049440000000000000000000000000000000000000000000000000000602082015250565b60006123636026836119e2565b915061236e82612307565b604082019050919050565b6000602082019050818103600083015261239281612356565b9050919050565b60006123a4826115c1565b91506123af836115c1565b92508282039050818111156123c7576123c661215a565b5b92915050565b7f496e76616c6964206269742076616c7565000000000000000000000000000000600082015250565b60006124036011836119e2565b915061240e826123cd565b602082019050919050565b60006020820190508181036000830152612432816123f6565b9050919050565b7f496e7075742061727261792063616e6e6f7420626520656d7074790000000000600082015250565b600061246f601b836119e2565b915061247a82612439565b602082019050919050565b6000602082019050818103600083015261249e81612462565b905091905056fea2646970667358221220afba5ab17b10e59677e07ce9f26836ae62ded89bbae507213c6c6a3a73f13aa564736f6c63430008130033",
  "immutableReferences": {},
  "source": "// SPDX-License-Identifier: MIT\r\npragma solidity 0.8.19;\r\n\r\ncontract EMR_Security {\r\n    struct EMR {\r\n        uint256 emrId;\r\n        uint256[] shares;\r\n        uint256 emrLength;\r\n        uint256 totalSharesLength;\r\n        string[] changeHistory;\r\n        uint256[] changeTimestamps;\r\n        uint256[] changeBlocks;\r\n    }\r\n\r\n    uint256 private emrCounter;\r\n    mapping(uint256 => EMR) public emrs;\r\n\r\n    event EMRUploaded(uint256 emrID, uint256 blockNumber);\r\n    event EMRUpdated(uint256 emrID, uint256 blockNumber);\r\n\r\n    function stringToAscii(string memory str) private pure returns (uint8[] memory) {\r\n        uint8[] memory asciiValues = new uint8[](bytes(str).length);\r\n        for (uint256 i = 0; i < bytes(str).length; i++) {\r\n            asciiValues[i] = uint8(bytes(str)[i]);\r\n        }\r\n        return asciiValues;\r\n    }\r\n\r\n    function strlen(string memory s) internal pure returns (uint256) {\r\n        uint256 len;\r\n        uint256 i = 0;\r\n        uint256 bytelength = bytes(s).length;\r\n        for (len = 0; i < bytelength; len++) {\r\n            bytes1 b = bytes(s)[i];\r\n            if (b < 0x80) {\r\n                i += 1;\r\n            } else if (b < 0xE0) {\r\n                i += 2;\r\n            } else if (b < 0xF0) {\r\n                i += 3;\r\n            } else if (b < 0xF8) {\r\n                i += 4;\r\n            } else if (b < 0xFC) {\r\n                i += 5;\r\n            } else {\r\n                i += 6;\r\n            }\r\n        }\r\n        return len;\r\n    }\r\n\r\n    function bitsToDecimal(uint256[] memory bits, uint256 t) private pure returns (uint256[] memory) {\r\n        uint256[] memory decimalNumbers = new uint256[](t);\r\n        uint256 bitsPerGroup = bits.length / t;\r\n\r\n        for (uint256 i = 0; i < t; i++) {\r\n            uint256 result = 0;\r\n            for (uint256 j = 0; j < bitsPerGroup; j++) {\r\n                uint256 index = i * bitsPerGroup + j;\r\n                require(bits[index] == 0 || bits[index] == 1, \"Invalid bit value\");\r\n                result = result * 2 + bits[index];\r\n            }\r\n            decimalNumbers[i] = result;\r\n        }\r\n        return decimalNumbers;\r\n    }\r\n\r\n    function StrToBits(string memory s) private pure returns (uint256[] memory) {\r\n        uint256[] memory bits = new uint256[](bytes(s).length * 8);\r\n        uint256 index = 0;\r\n        uint8[] memory b = stringToAscii(s);\r\n        for (uint256 i = 0; i < b.length; i++) {\r\n            uint8 a = b[i];\r\n            for (uint256 j = 0; j < 8; j++) {\r\n                bits[index] = (a >> (7 - j)) & 1;\r\n                index++;\r\n            }\r\n        }\r\n        return bits;\r\n    }\r\n\r\n    function InterleavingEncoder(string memory r, uint256 t) private pure returns (uint256[] memory, uint256) {\r\n        uint256[] memory temp = StrToBits(r);\r\n        uint256 bitsLength = temp.length;\r\n\r\n        // Calculate padding if needed\r\n        uint256 paddedBitsLength = bitsLength;\r\n        if (bitsLength % t != 0) {\r\n            paddedBitsLength += t - (bitsLength % t);\r\n        }\r\n        uint256[] memory bits = new uint256[](paddedBitsLength);\r\n        for (uint256 i = 0; i < bitsLength; i++) {\r\n            bits[i] = temp[i];\r\n        }\r\n\r\n        // Add padding bits (if any)\r\n        for (uint256 i = bitsLength; i < paddedBitsLength; i++) {\r\n            bits[i] = 0;\r\n        }\r\n\r\n        uint256[] memory sub_mess_bits = new uint256[](paddedBitsLength);\r\n        for (uint256 i = 0; i < paddedBitsLength; i++) {\r\n            sub_mess_bits[((i % t) * (paddedBitsLength / t)) + (i / t)] = bits[i];\r\n        }\r\n\r\n        uint256[] memory sub_mess = bitsToDecimal(sub_mess_bits, t);\r\n        return (sub_mess, paddedBitsLength);\r\n    }\r\n\r\n    function DecimalToBits(uint256[] memory nums, uint256 totalBitsLength) private pure returns (uint256[] memory) {\r\n        uint256[] memory bits = new uint256[](totalBitsLength);\r\n        uint256 bitsPerNum = totalBitsLength / nums.length;\r\n        uint256 index = 0;\r\n\r\n        for (uint256 i = 0; i < nums.length; i++) {\r\n            uint256 num = nums[i];\r\n            for (uint256 j = 0; j < bitsPerNum; j++) {\r\n                uint256 bitValue = (num >> (bitsPerNum - j - 1)) & 1;\r\n                bits[index] = bitValue;\r\n                index++;\r\n            }\r\n        }\r\n\r\n        return bits;\r\n    }\r\n\r\n    function InterleavingDecoder(uint256[] memory subMessages, uint256 t, uint256 totalBitsLength, uint256 emrLength) public pure returns (string memory) {\r\n        uint256[] memory bits = DecimalToBits(subMessages, totalBitsLength);\r\n        uint256[] memory rearrangedBits = new uint256[](totalBitsLength);\r\n        for (uint256 i = 0; i < totalBitsLength; i++) {\r\n            rearrangedBits[i] = bits[((i % t) * (totalBitsLength / t)) + (i / t)];\r\n        }\r\n        \r\n        uint256[] memory charInt = bitsToDecimal(rearrangedBits, emrLength / 8);\r\n        uint8[] memory EMR = new uint8[](charInt.length);\r\n        for (uint256 i = 0; i < charInt.length; i++) {\r\n            EMR[i] = uint8(charInt[i]);\r\n        }\r\n        return convertToChars(EMR);\r\n    }\r\n\r\n    function convertToChars(uint8[] memory _asciiNumbers) private pure returns (string memory) {\r\n        require(_asciiNumbers.length > 0, \"Input array cannot be empty\");\r\n        \r\n        bytes memory result = new bytes(_asciiNumbers.length);\r\n        for (uint256 i = 0; i < _asciiNumbers.length; i++) {\r\n            result[i] = bytes1(_asciiNumbers[i]);\r\n        }\r\n        \r\n        return string(result);\r\n    }\r\n\r\n    function uploadEMR(string memory emr, uint t) public returns (uint256 emrID,uint256 blockNumber) {\r\n        emrCounter++;\r\n        emrID = emrCounter;\r\n        (uint256[] memory shares, uint256 totalSharesLength) = InterleavingEncoder(emr, t);\r\n        uint256 emrLength = strlen(emr) * 8;\r\n\r\n        emrs[emrID].emrId = emrID;\r\n        emrs[emrID].shares = shares;\r\n        emrs[emrID].emrLength = emrLength;\r\n        emrs[emrID].totalSharesLength = totalSharesLength;\r\n        emrs[emrID].changeHistory.push(\"Uploaded\");\r\n        emrs[emrID].changeTimestamps.push(block.timestamp);\r\n\r\n        uint256 blockNumber = block.number; // Store the shares in the current block\r\n        emrs[emrID].changeBlocks.push(blockNumber);\r\n\r\n        emit EMRUploaded(emrID, blockNumber);\r\n        return (emrID,blockNumber);\r\n    }\r\n\r\n    function getEMRData(uint256[] memory shares,uint256 EMR_id) public view returns (string memory) {\r\n        return InterleavingDecoder(shares, shares.length,emrs[EMR_id].totalSharesLength, emrs[EMR_id].emrLength);\r\n    }\r\n\r\n    function getSharesByBlockNumber(uint256 emrID, uint256 blockNumber) public view returns (uint256[] memory) {\r\n        require(emrs[emrID].shares.length > 0, \"EMR not found\");\r\n\r\n        for (uint256 i = 0; i < emrs[emrID].changeBlocks.length; i++) {\r\n            if (emrs[emrID].changeBlocks[i] == blockNumber) {\r\n                return emrs[emrID].shares;\r\n            }\r\n        }\r\n        revert(\"Block number not found for this EMR ID\");\r\n    }\r\n    \r\n    function updateEMR(uint256 emrID, uint256[] memory shares, string memory changeData, string memory changeMessage) public returns (uint256 updatedEmrID, uint256 blockNumber) {\r\n        require(emrs[emrID].shares.length > 0, \"EMR not found\");\r\n\r\n        string memory originalData = InterleavingDecoder(shares, shares.length,emrs[emrID].totalSharesLength, emrs[emrID].emrLength);\r\n        string memory newData = string.concat(originalData, changeData);\r\n        (uint256[] memory newShares,uint256 sharesLength) = InterleavingEncoder(newData, shares.length);\r\n\r\n        emrs[emrID].shares = newShares;\r\n        emrs[emrID].changeHistory.push(changeMessage);\r\n        emrs[emrID].emrLength = strlen(newData) * 8;\r\n        emrs[emrID].changeTimestamps.push(block.timestamp);\r\n        emrs[emrID].totalSharesLength = sharesLength;\r\n        blockNumber = block.number;\r\n        emrs[emrID].changeBlocks.push(blockNumber);\r\n\r\n        emit EMRUpdated(emrID, blockNumber);\r\n        return (emrID, blockNumber);\r\n    }\r\n\r\n    function getEMRHistory(uint256 emrID) public view returns (string[] memory history, uint256[] memory timestamps, uint256[] memory blocks) {\r\n        EMR storage emr = emrs[emrID];\r\n        return (emr.changeHistory, emr.changeTimestamps, emr.changeBlocks);\r\n    }\r\n}\r\n",
  "sourcePath": "C:\\Users\\mridu\\OneDrive\\Desktop\\Medical_data_Blockchain\\contracts\\EMR_Security.sol",
  "compiler": {
    "name": "solc",
    "version": "0.8.19+commit.7dd6d404.Emscripten.clang"
  },
  "schemaVersion": "3.4.16",
  "updatedAt": "2024-05-29T19:41:19.137Z",
  "networkType": "ethereum",
  "devdoc": {
    "kind": "dev",
    "methods": {},
    "version": 1
  },
  "userdoc": {
    "kind": "user",
    "methods": {},
    "version": 1
  }
}